{
  "_format": "hh-sol-artifact-1",
  "contractName": "MyEpicNFT",
  "sourceName": "contracts/MyEpicNFT.sol",
  "abi": [
    {
      "inputs": [],
      "stateMutability": "nonpayable",
      "type": "constructor"
    },
    {
      "anonymous": false,
      "inputs": [
        {
          "indexed": true,
          "internalType": "address",
          "name": "owner",
          "type": "address"
        },
        {
          "indexed": true,
          "internalType": "address",
          "name": "approved",
          "type": "address"
        },
        {
          "indexed": true,
          "internalType": "uint256",
          "name": "tokenId",
          "type": "uint256"
        }
      ],
      "name": "Approval",
      "type": "event"
    },
    {
      "anonymous": false,
      "inputs": [
        {
          "indexed": true,
          "internalType": "address",
          "name": "owner",
          "type": "address"
        },
        {
          "indexed": true,
          "internalType": "address",
          "name": "operator",
          "type": "address"
        },
        {
          "indexed": false,
          "internalType": "bool",
          "name": "approved",
          "type": "bool"
        }
      ],
      "name": "ApprovalForAll",
      "type": "event"
    },
    {
      "anonymous": false,
      "inputs": [
        {
          "indexed": true,
          "internalType": "address",
          "name": "from",
          "type": "address"
        },
        {
          "indexed": true,
          "internalType": "address",
          "name": "to",
          "type": "address"
        },
        {
          "indexed": true,
          "internalType": "uint256",
          "name": "tokenId",
          "type": "uint256"
        }
      ],
      "name": "Transfer",
      "type": "event"
    },
    {
      "inputs": [
        {
          "internalType": "address",
          "name": "to",
          "type": "address"
        },
        {
          "internalType": "uint256",
          "name": "tokenId",
          "type": "uint256"
        }
      ],
      "name": "approve",
      "outputs": [],
      "stateMutability": "nonpayable",
      "type": "function"
    },
    {
      "inputs": [
        {
          "internalType": "address",
          "name": "owner",
          "type": "address"
        }
      ],
      "name": "balanceOf",
      "outputs": [
        {
          "internalType": "uint256",
          "name": "",
          "type": "uint256"
        }
      ],
      "stateMutability": "view",
      "type": "function"
    },
    {
      "inputs": [
        {
          "internalType": "uint256",
          "name": "tokenId",
          "type": "uint256"
        }
      ],
      "name": "getApproved",
      "outputs": [
        {
          "internalType": "address",
          "name": "",
          "type": "address"
        }
      ],
      "stateMutability": "view",
      "type": "function"
    },
    {
      "inputs": [
        {
          "internalType": "address",
          "name": "owner",
          "type": "address"
        },
        {
          "internalType": "address",
          "name": "operator",
          "type": "address"
        }
      ],
      "name": "isApprovedForAll",
      "outputs": [
        {
          "internalType": "bool",
          "name": "",
          "type": "bool"
        }
      ],
      "stateMutability": "view",
      "type": "function"
    },
    {
      "inputs": [],
      "name": "makeAnEpicNFT",
      "outputs": [],
      "stateMutability": "nonpayable",
      "type": "function"
    },
    {
      "inputs": [],
      "name": "name",
      "outputs": [
        {
          "internalType": "string",
          "name": "",
          "type": "string"
        }
      ],
      "stateMutability": "view",
      "type": "function"
    },
    {
      "inputs": [
        {
          "internalType": "uint256",
          "name": "tokenId",
          "type": "uint256"
        }
      ],
      "name": "ownerOf",
      "outputs": [
        {
          "internalType": "address",
          "name": "",
          "type": "address"
        }
      ],
      "stateMutability": "view",
      "type": "function"
    },
    {
      "inputs": [
        {
          "internalType": "uint256",
          "name": "tokenId",
          "type": "uint256"
        }
      ],
      "name": "pickRandomFirstWord",
      "outputs": [
        {
          "internalType": "string",
          "name": "",
          "type": "string"
        }
      ],
      "stateMutability": "view",
      "type": "function"
    },
    {
      "inputs": [
        {
          "internalType": "uint256",
          "name": "tokenId",
          "type": "uint256"
        }
      ],
      "name": "pickRandomSecondWord",
      "outputs": [
        {
          "internalType": "string",
          "name": "",
          "type": "string"
        }
      ],
      "stateMutability": "view",
      "type": "function"
    },
    {
      "inputs": [
        {
          "internalType": "uint256",
          "name": "tokenId",
          "type": "uint256"
        }
      ],
      "name": "pickRandomThirdWord",
      "outputs": [
        {
          "internalType": "string",
          "name": "",
          "type": "string"
        }
      ],
      "stateMutability": "view",
      "type": "function"
    },
    {
      "inputs": [
        {
          "internalType": "address",
          "name": "from",
          "type": "address"
        },
        {
          "internalType": "address",
          "name": "to",
          "type": "address"
        },
        {
          "internalType": "uint256",
          "name": "tokenId",
          "type": "uint256"
        }
      ],
      "name": "safeTransferFrom",
      "outputs": [],
      "stateMutability": "nonpayable",
      "type": "function"
    },
    {
      "inputs": [
        {
          "internalType": "address",
          "name": "from",
          "type": "address"
        },
        {
          "internalType": "address",
          "name": "to",
          "type": "address"
        },
        {
          "internalType": "uint256",
          "name": "tokenId",
          "type": "uint256"
        },
        {
          "internalType": "bytes",
          "name": "_data",
          "type": "bytes"
        }
      ],
      "name": "safeTransferFrom",
      "outputs": [],
      "stateMutability": "nonpayable",
      "type": "function"
    },
    {
      "inputs": [
        {
          "internalType": "address",
          "name": "operator",
          "type": "address"
        },
        {
          "internalType": "bool",
          "name": "approved",
          "type": "bool"
        }
      ],
      "name": "setApprovalForAll",
      "outputs": [],
      "stateMutability": "nonpayable",
      "type": "function"
    },
    {
      "inputs": [
        {
          "internalType": "bytes4",
          "name": "interfaceId",
          "type": "bytes4"
        }
      ],
      "name": "supportsInterface",
      "outputs": [
        {
          "internalType": "bool",
          "name": "",
          "type": "bool"
        }
      ],
      "stateMutability": "view",
      "type": "function"
    },
    {
      "inputs": [],
      "name": "symbol",
      "outputs": [
        {
          "internalType": "string",
          "name": "",
          "type": "string"
        }
      ],
      "stateMutability": "view",
      "type": "function"
    },
    {
      "inputs": [
        {
          "internalType": "uint256",
          "name": "tokenId",
          "type": "uint256"
        }
      ],
      "name": "tokenURI",
      "outputs": [
        {
          "internalType": "string",
          "name": "",
          "type": "string"
        }
      ],
      "stateMutability": "view",
      "type": "function"
    },
    {
      "inputs": [
        {
          "internalType": "address",
          "name": "from",
          "type": "address"
        },
        {
          "internalType": "address",
          "name": "to",
          "type": "address"
        },
        {
          "internalType": "uint256",
          "name": "tokenId",
          "type": "uint256"
        }
      ],
      "name": "transferFrom",
      "outputs": [],
      "stateMutability": "nonpayable",
      "type": "function"
    }
  ],
  "bytecode": "0x608060405260405180610160016040528061012f81526020016200436c61012f913960089080519060200190620000389291906200067e565b506040518060c001604052806040518060400160405280600781526020017f456e676c616e640000000000000000000000000000000000000000000000000081525081526020016040518060400160405280600781526020017f4765726d616e790000000000000000000000000000000000000000000000000081525081526020016040518060400160405280600681526020017f4672616e6365000000000000000000000000000000000000000000000000000081525081526020016040518060400160405280600781526020017f417573747269610000000000000000000000000000000000000000000000000081525081526020016040518060400160405280600681526020017f527573736961000000000000000000000000000000000000000000000000000081525081526020016040518060400160405280600681526020017f53776564656e00000000000000000000000000000000000000000000000000008152508152506009906006620001b69291906200070f565b506040518060c001604052806040518060400160405280600581526020017f506c61746500000000000000000000000000000000000000000000000000000081525081526020016040518060400160405280600a81526020017f42726967616e64696e650000000000000000000000000000000000000000000081525081526020016040518060400160405280600481526020017f4d61696c0000000000000000000000000000000000000000000000000000000081525081526020016040518060400160405280600881526020017f4c616d656c6c617200000000000000000000000000000000000000000000000081525081526020016040518060400160405280600581526020017f5363616c6500000000000000000000000000000000000000000000000000000081525081526020016040518060400160405280600881526020017f47616d6265736f6e000000000000000000000000000000000000000000000000815250815250600a906006620003349291906200070f565b506040518060c001604052806040518060400160405280600781526020017f48616c626572640000000000000000000000000000000000000000000000000081525081526020016040518060400160405280600581526020017f537065617200000000000000000000000000000000000000000000000000000081525081526020016040518060400160405280600481526020017f4d6163650000000000000000000000000000000000000000000000000000000081525081526020016040518060400160405280600981526020017f4c6f6e6773776f7264000000000000000000000000000000000000000000000081525081526020016040518060400160405280600381526020017f426f77000000000000000000000000000000000000000000000000000000000081525081526020016040518060400160405280600681526020017f4461676765720000000000000000000000000000000000000000000000000000815250815250600b906006620004b29291906200070f565b50348015620004c057600080fd5b506040518060400160405280600981526020017f5371756172654e465400000000000000000000000000000000000000000000008152506040518060400160405280600681526020017f53515541524500000000000000000000000000000000000000000000000000008152508160009080519060200190620005459291906200067e565b5080600190805190602001906200055e9291906200067e565b505050620005ac6040518060400160405280601e81526020017f54686973206973206d79204e465420636f6e74726163742e20576f6168210000815250620005b260201b620010a81760201c565b62000930565b6200065281604051602401620005c9919062000844565b6040516020818303038152906040527f41304fac000000000000000000000000000000000000000000000000000000007bffffffffffffffffffffffffffffffffffffffffffffffffffffffff19166020820180517bffffffffffffffffffffffffffffffffffffffffffffffffffffffff83818316178352505050506200065560201b60201c565b50565b60008151905060006a636f6e736f6c652e6c6f679050602083016000808483855afa5050505050565b8280546200068c90620008ba565b90600052602060002090601f016020900481019282620006b05760008555620006fc565b82601f10620006cb57805160ff1916838001178555620006fc565b82800160010185558215620006fc579182015b82811115620006fb578251825591602001919060010190620006de565b5b5090506200070b919062000776565b5090565b82805482825590600052602060002090810192821562000763579160200282015b8281111562000762578251829080519060200190620007519291906200067e565b509160200191906001019062000730565b5b50905062000772919062000795565b5090565b5b808211156200079157600081600090555060010162000777565b5090565b5b80821115620007b95760008181620007af9190620007bd565b5060010162000796565b5090565b508054620007cb90620008ba565b6000825580601f10620007df575062000800565b601f016020900490600052602060002090810190620007ff919062000776565b5b50565b6000620008108262000868565b6200081c818562000873565b93506200082e81856020860162000884565b62000839816200091f565b840191505092915050565b6000602082019050818103600083015262000860818462000803565b905092915050565b600081519050919050565b600082825260208201905092915050565b60005b83811015620008a457808201518184015260208101905062000887565b83811115620008b4576000848401525b50505050565b60006002820490506001821680620008d357607f821691505b60208210811415620008ea57620008e9620008f0565b5b50919050565b7f4e487b7100000000000000000000000000000000000000000000000000000000600052602260045260246000fd5b6000601f19601f8301169050919050565b613a2c80620009406000396000f3fe608060405234801561001057600080fd5b506004361061010b5760003560e01c806370a08231116100a2578063b88d4fde11610071578063b88d4fde146102dc578063c575757a146102f8578063c87b56dd14610328578063de9d132f14610358578063e985e9c5146103625761010b565b806370a082311461024257806395d89b4114610272578063a22cb46514610290578063b187301f146102ac5761010b565b806323b872dd116100de57806323b872dd146101aa5780632de38d68146101c657806342842e0e146101f65780636352211e146102125761010b565b806301ffc9a71461011057806306fdde0314610140578063081812fc1461015e578063095ea7b31461018e575b600080fd5b61012a600480360381019061012591906124b5565b610392565b6040516101379190612bf5565b60405180910390f35b610148610474565b6040516101559190612c10565b60405180910390f35b61017860048036038101906101739190612507565b610506565b6040516101859190612b8e565b60405180910390f35b6101a860048036038101906101a39190612479565b61058b565b005b6101c460048036038101906101bf9190612373565b6106a3565b005b6101e060048036038101906101db9190612507565b610703565b6040516101ed9190612c10565b60405180910390f35b610210600480360381019061020b9190612373565b610821565b005b61022c60048036038101906102279190612507565b610841565b6040516102399190612b8e565b60405180910390f35b61025c6004803603810190610257919061230e565b6108f3565b6040516102699190612e70565b60405180910390f35b61027a6109ab565b6040516102879190612c10565b60405180910390f35b6102aa60048036038101906102a5919061243d565b610a3d565b005b6102c660048036038101906102c19190612507565b610a53565b6040516102d39190612c10565b60405180910390f35b6102f660048036038101906102f191906123c2565b610b71565b005b610312600480360381019061030d9190612507565b610bd3565b60405161031f9190612c10565b60405180910390f35b610342600480360381019061033d9190612507565b610cf1565b60405161034f9190612c10565b60405180910390f35b610360610e43565b005b61037c60048036038101906103779190612337565b611014565b6040516103899190612bf5565b60405180910390f35b60007f80ac58cd000000000000000000000000000000000000000000000000000000007bffffffffffffffffffffffffffffffffffffffffffffffffffffffff1916827bffffffffffffffffffffffffffffffffffffffffffffffffffffffff1916148061045d57507f5b5e139f000000000000000000000000000000000000000000000000000000007bffffffffffffffffffffffffffffffffffffffffffffffffffffffff1916827bffffffffffffffffffffffffffffffffffffffffffffffffffffffff1916145b8061046d575061046c82611141565b5b9050919050565b60606000805461048390613104565b80601f01602080910402602001604051908101604052809291908181526020018280546104af90613104565b80156104fc5780601f106104d1576101008083540402835291602001916104fc565b820191906000526020600020905b8154815290600101906020018083116104df57829003601f168201915b5050505050905090565b6000610511826111ab565b610550576040517f08c379a000000000000000000000000000000000000000000000000000000000815260040161054790612df0565b60405180910390fd5b6004600083815260200190815260200160002060009054906101000a900473ffffffffffffffffffffffffffffffffffffffff169050919050565b600061059682610841565b90508073ffffffffffffffffffffffffffffffffffffffff168373ffffffffffffffffffffffffffffffffffffffff161415610607576040517f08c379a00000000000000000000000000000000000000000000000000000000081526004016105fe90612e30565b60405180910390fd5b8073ffffffffffffffffffffffffffffffffffffffff16610626611217565b73ffffffffffffffffffffffffffffffffffffffff16148061065557506106548161064f611217565b611014565b5b610694576040517f08c379a000000000000000000000000000000000000000000000000000000000815260040161068b90612d30565b60405180910390fd5b61069e838361121f565b505050565b6106b46106ae611217565b826112d8565b6106f3576040517f08c379a00000000000000000000000000000000000000000000000000000000081526004016106ea90612e50565b60405180910390fd5b6106fe8383836113b6565b505050565b606060006107376107138461161d565b6040516020016107239190612b4a565b6040516020818303038152906040526117ca565b90506009805490508161074a91906131b0565b905060098181548110610786577f4e487b7100000000000000000000000000000000000000000000000000000000600052603260045260246000fd5b90600052602060002001805461079b90613104565b80601f01602080910402602001604051908101604052809291908181526020018280546107c790613104565b80156108145780601f106107e957610100808354040283529160200191610814565b820191906000526020600020905b8154815290600101906020018083116107f757829003601f168201915b5050505050915050919050565b61083c83838360405180602001604052806000815250610b71565b505050565b6000806002600084815260200190815260200160002060009054906101000a900473ffffffffffffffffffffffffffffffffffffffff169050600073ffffffffffffffffffffffffffffffffffffffff168173ffffffffffffffffffffffffffffffffffffffff1614156108ea576040517f08c379a00000000000000000000000000000000000000000000000000000000081526004016108e190612d70565b60405180910390fd5b80915050919050565b60008073ffffffffffffffffffffffffffffffffffffffff168273ffffffffffffffffffffffffffffffffffffffff161415610964576040517f08c379a000000000000000000000000000000000000000000000000000000000815260040161095b90612d50565b60405180910390fd5b600360008373ffffffffffffffffffffffffffffffffffffffff1673ffffffffffffffffffffffffffffffffffffffff168152602001908152602001600020549050919050565b6060600180546109ba90613104565b80601f01602080910402602001604051908101604052809291908181526020018280546109e690613104565b8015610a335780601f10610a0857610100808354040283529160200191610a33565b820191906000526020600020905b815481529060010190602001808311610a1657829003601f168201915b5050505050905090565b610a4f610a48611217565b83836117fd565b5050565b60606000610a87610a638461161d565b604051602001610a739190612ae3565b6040516020818303038152906040526117ca565b9050600a8054905081610a9a91906131b0565b9050600a8181548110610ad6577f4e487b7100000000000000000000000000000000000000000000000000000000600052603260045260246000fd5b906000526020600020018054610aeb90613104565b80601f0160208091040260200160405190810160405280929190818152602001828054610b1790613104565b8015610b645780601f10610b3957610100808354040283529160200191610b64565b820191906000526020600020905b815481529060010190602001808311610b4757829003601f168201915b5050505050915050919050565b610b82610b7c611217565b836112d8565b610bc1576040517f08c379a0000000000000000000000000000000000000000000000000000000008152600401610bb890612e50565b60405180910390fd5b610bcd8484848461196a565b50505050565b60606000610c07610be38461161d565b604051602001610bf39190612ac1565b6040516020818303038152906040526117ca565b9050600b8054905081610c1a91906131b0565b9050600b8181548110610c56577f4e487b7100000000000000000000000000000000000000000000000000000000600052603260045260246000fd5b906000526020600020018054610c6b90613104565b80601f0160208091040260200160405190810160405280929190818152602001828054610c9790613104565b8015610ce45780601f10610cb957610100808354040283529160200191610ce4565b820191906000526020600020905b815481529060010190602001808311610cc757829003601f168201915b5050505050915050919050565b6060610cfc826111ab565b610d3b576040517f08c379a0000000000000000000000000000000000000000000000000000000008152600401610d3290612dd0565b60405180910390fd5b6000600660008481526020019081526020016000208054610d5b90613104565b80601f0160208091040260200160405190810160405280929190818152602001828054610d8790613104565b8015610dd45780601f10610da957610100808354040283529160200191610dd4565b820191906000526020600020905b815481529060010190602001808311610db757829003601f168201915b505050505090506000610de56119c6565b9050600081511415610dfb578192505050610e3e565b600082511115610e30578082604051602001610e18929190612a01565b60405160208183030381529060405292505050610e3e565b610e39846119dd565b925050505b919050565b6000610e4f6007611a84565b90506000610e5c82610703565b90506000610e6983610a53565b90506000610e7684610bd3565b90506000838383604051602001610e8f93929190612a25565b604051602081830303815290604052905060006008858585604051602001610eba9493929190612a56565b60405160208183030381529060405290506000610eff83610eda84611a92565b604051602001610eeb929190612b05565b604051602081830303815290604052611a92565b9050600081604051602001610f149190612b6c565b6040516020818303038152906040529050610f636040518060400160405280601581526020017f0a2d2d2d2d2d2d2d2d2d2d2d2d2d2d2d2d2d2d2d2d00000000000000000000008152506110a8565b610f8b81604051602001610f779190612a9f565b6040516020818303038152906040526110a8565b610fc96040518060400160405280601581526020017f0a2d2d2d2d2d2d2d2d2d2d2d2d2d2d2d2d2d2d2d2d00000000000000000000008152506110a8565b610fd33389611c31565b610fdd8882611c4f565b611000604051806060016040528060258152602001613992602591398933611cc3565b61100a6007611d62565b5050505050505050565b6000600560008473ffffffffffffffffffffffffffffffffffffffff1673ffffffffffffffffffffffffffffffffffffffff16815260200190815260200160002060008373ffffffffffffffffffffffffffffffffffffffff1673ffffffffffffffffffffffffffffffffffffffff16815260200190815260200160002060009054906101000a900460ff16905092915050565b61113e816040516024016110bc9190612c10565b6040516020818303038152906040527f41304fac000000000000000000000000000000000000000000000000000000007bffffffffffffffffffffffffffffffffffffffffffffffffffffffff19166020820180517bffffffffffffffffffffffffffffffffffffffffffffffffffffffff8381831617835250505050611d78565b50565b60007f01ffc9a7000000000000000000000000000000000000000000000000000000007bffffffffffffffffffffffffffffffffffffffffffffffffffffffff1916827bffffffffffffffffffffffffffffffffffffffffffffffffffffffff1916149050919050565b60008073ffffffffffffffffffffffffffffffffffffffff166002600084815260200190815260200160002060009054906101000a900473ffffffffffffffffffffffffffffffffffffffff1673ffffffffffffffffffffffffffffffffffffffff1614159050919050565b600033905090565b816004600083815260200190815260200160002060006101000a81548173ffffffffffffffffffffffffffffffffffffffff021916908373ffffffffffffffffffffffffffffffffffffffff160217905550808273ffffffffffffffffffffffffffffffffffffffff1661129283610841565b73ffffffffffffffffffffffffffffffffffffffff167f8c5be1e5ebec7d5bd14f71427d1e84f3dd0314c0f7b2291e5b200ac8c7c3b92560405160405180910390a45050565b60006112e3826111ab565b611322576040517f08c379a000000000000000000000000000000000000000000000000000000000815260040161131990612d10565b60405180910390fd5b600061132d83610841565b90508073ffffffffffffffffffffffffffffffffffffffff168473ffffffffffffffffffffffffffffffffffffffff16148061139c57508373ffffffffffffffffffffffffffffffffffffffff1661138484610506565b73ffffffffffffffffffffffffffffffffffffffff16145b806113ad57506113ac8185611014565b5b91505092915050565b8273ffffffffffffffffffffffffffffffffffffffff166113d682610841565b73ffffffffffffffffffffffffffffffffffffffff161461142c576040517f08c379a000000000000000000000000000000000000000000000000000000000815260040161142390612c90565b60405180910390fd5b600073ffffffffffffffffffffffffffffffffffffffff168273ffffffffffffffffffffffffffffffffffffffff16141561149c576040517f08c379a000000000000000000000000000000000000000000000000000000000815260040161149390612cd0565b60405180910390fd5b6114a7838383611da1565b6114b260008261121f565b6001600360008573ffffffffffffffffffffffffffffffffffffffff1673ffffffffffffffffffffffffffffffffffffffff1681526020019081526020016000206000828254611502919061301a565b925050819055506001600360008473ffffffffffffffffffffffffffffffffffffffff1673ffffffffffffffffffffffffffffffffffffffff16815260200190815260200160002060008282546115599190612f39565b92505081905550816002600083815260200190815260200160002060006101000a81548173ffffffffffffffffffffffffffffffffffffffff021916908373ffffffffffffffffffffffffffffffffffffffff160217905550808273ffffffffffffffffffffffffffffffffffffffff168473ffffffffffffffffffffffffffffffffffffffff167fddf252ad1be2c89b69c2b068fc378daa952ba7f163c4a11628f55a4df523b3ef60405160405180910390a4611618838383611da6565b505050565b60606000821415611665576040518060400160405280600181526020017f300000000000000000000000000000000000000000000000000000000000000081525090506117c5565b600082905060005b6000821461169757808061168090613167565b915050600a826116909190612f8f565b915061166d565b60008167ffffffffffffffff8111156116d9577f4e487b7100000000000000000000000000000000000000000000000000000000600052604160045260246000fd5b6040519080825280601f01601f19166020018201604052801561170b5781602001600182028036833780820191505090505b5090505b600085146117be57600182611724919061301a565b9150600a8561173391906131b0565b603061173f9190612f39565b60f81b81838151811061177b577f4e487b7100000000000000000000000000000000000000000000000000000000600052603260045260246000fd5b60200101907effffffffffffffffffffffffffffffffffffffffffffffffffffffffffffff1916908160001a905350600a856117b79190612f8f565b945061170f565b8093505050505b919050565b6000816040516020016117dd91906129ea565b6040516020818303038152906040528051906020012060001c9050919050565b8173ffffffffffffffffffffffffffffffffffffffff168373ffffffffffffffffffffffffffffffffffffffff16141561186c576040517f08c379a000000000000000000000000000000000000000000000000000000000815260040161186390612cf0565b60405180910390fd5b80600560008573ffffffffffffffffffffffffffffffffffffffff1673ffffffffffffffffffffffffffffffffffffffff16815260200190815260200160002060008473ffffffffffffffffffffffffffffffffffffffff1673ffffffffffffffffffffffffffffffffffffffff16815260200190815260200160002060006101000a81548160ff0219169083151502179055508173ffffffffffffffffffffffffffffffffffffffff168373ffffffffffffffffffffffffffffffffffffffff167f17307eab39ab6107e8899845ad3d59bd9653f200f220920489ca2b5937696c318360405161195d9190612bf5565b60405180910390a3505050565b6119758484846113b6565b61198184848484611dab565b6119c0576040517f08c379a00000000000000000000000000000000000000000000000000000000081526004016119b790612c70565b60405180910390fd5b50505050565b606060405180602001604052806000815250905090565b60606119e8826111ab565b611a27576040517f08c379a0000000000000000000000000000000000000000000000000000000008152600401611a1e90612e10565b60405180910390fd5b6000611a316119c6565b90506000815111611a515760405180602001604052806000815250611a7c565b80611a5b8461161d565b604051602001611a6c929190612a01565b6040516020818303038152906040525b915050919050565b600081600001549050919050565b6060600082511415611ab557604051806020016040528060008152509050611c2c565b60006040518060600160405280604081526020016139b76040913990506000600360028551611ae49190612f39565b611aee9190612f8f565b6004611afa9190612fc0565b90506000602082611b0b9190612f39565b67ffffffffffffffff811115611b4a577f4e487b7100000000000000000000000000000000000000000000000000000000600052604160045260246000fd5b6040519080825280601f01601f191660200182016040528015611b7c5781602001600182028036833780820191505090505b509050818152600183018586518101602084015b81831015611beb576003830192508251603f8160121c168501518253600182019150603f81600c1c168501518253600182019150603f8160061c168501518253600182019150603f8116850151825360018201915050611b90565b600389510660018114611c055760028114611c1557611c20565b613d3d60f01b6002830352611c20565b603d60f81b60018303525b50505050508093505050505b919050565b611c4b828260405180602001604052806000815250611f42565b5050565b611c58826111ab565b611c97576040517f08c379a0000000000000000000000000000000000000000000000000000000008152600401611c8e90612d90565b60405180910390fd5b80600660008481526020019081526020016000209080519060200190611cbe92919061219a565b505050565b611d5d838383604051602401611cdb93929190612c32565b6040516020818303038152906040527fe3849f79000000000000000000000000000000000000000000000000000000007bffffffffffffffffffffffffffffffffffffffffffffffffffffffff19166020820180517bffffffffffffffffffffffffffffffffffffffffffffffffffffffff8381831617835250505050611d78565b505050565b6001816000016000828254019250508190555050565b60008151905060006a636f6e736f6c652e6c6f679050602083016000808483855afa5050505050565b505050565b505050565b6000611dcc8473ffffffffffffffffffffffffffffffffffffffff16611f9d565b15611f35578373ffffffffffffffffffffffffffffffffffffffff1663150b7a02611df5611217565b8786866040518563ffffffff1660e01b8152600401611e179493929190612ba9565b602060405180830381600087803b158015611e3157600080fd5b505af1925050508015611e6257506040513d601f19601f82011682018060405250810190611e5f91906124de565b60015b611ee5573d8060008114611e92576040519150601f19603f3d011682016040523d82523d6000602084013e611e97565b606091505b50600081511415611edd576040517f08c379a0000000000000000000000000000000000000000000000000000000008152600401611ed490612c70565b60405180910390fd5b805181602001fd5b63150b7a0260e01b7bffffffffffffffffffffffffffffffffffffffffffffffffffffffff1916817bffffffffffffffffffffffffffffffffffffffffffffffffffffffff191614915050611f3a565b600190505b949350505050565b611f4c8383611fc0565b611f596000848484611dab565b611f98576040517f08c379a0000000000000000000000000000000000000000000000000000000008152600401611f8f90612c70565b60405180910390fd5b505050565b6000808273ffffffffffffffffffffffffffffffffffffffff163b119050919050565b600073ffffffffffffffffffffffffffffffffffffffff168273ffffffffffffffffffffffffffffffffffffffff161415612030576040517f08c379a000000000000000000000000000000000000000000000000000000000815260040161202790612db0565b60405180910390fd5b612039816111ab565b15612079576040517f08c379a000000000000000000000000000000000000000000000000000000000815260040161207090612cb0565b60405180910390fd5b61208560008383611da1565b6001600360008473ffffffffffffffffffffffffffffffffffffffff1673ffffffffffffffffffffffffffffffffffffffff16815260200190815260200160002060008282546120d59190612f39565b92505081905550816002600083815260200190815260200160002060006101000a81548173ffffffffffffffffffffffffffffffffffffffff021916908373ffffffffffffffffffffffffffffffffffffffff160217905550808273ffffffffffffffffffffffffffffffffffffffff16600073ffffffffffffffffffffffffffffffffffffffff167fddf252ad1be2c89b69c2b068fc378daa952ba7f163c4a11628f55a4df523b3ef60405160405180910390a461219660008383611da6565b5050565b8280546121a690613104565b90600052602060002090601f0160209004810192826121c8576000855561220f565b82601f106121e157805160ff191683800117855561220f565b8280016001018555821561220f579182015b8281111561220e5782518255916020019190600101906121f3565b5b50905061221c9190612220565b5090565b5b80821115612239576000816000905550600101612221565b5090565b600061225061224b84612eb0565b612e8b565b90508281526020810184848401111561226857600080fd5b6122738482856130c2565b509392505050565b60008135905061228a81613935565b92915050565b60008135905061229f8161394c565b92915050565b6000813590506122b481613963565b92915050565b6000815190506122c981613963565b92915050565b600082601f8301126122e057600080fd5b81356122f084826020860161223d565b91505092915050565b6000813590506123088161397a565b92915050565b60006020828403121561232057600080fd5b600061232e8482850161227b565b91505092915050565b6000806040838503121561234a57600080fd5b60006123588582860161227b565b92505060206123698582860161227b565b9150509250929050565b60008060006060848603121561238857600080fd5b60006123968682870161227b565b93505060206123a78682870161227b565b92505060406123b8868287016122f9565b9150509250925092565b600080600080608085870312156123d857600080fd5b60006123e68782880161227b565b94505060206123f78782880161227b565b9350506040612408878288016122f9565b925050606085013567ffffffffffffffff81111561242557600080fd5b612431878288016122cf565b91505092959194509250565b6000806040838503121561245057600080fd5b600061245e8582860161227b565b925050602061246f85828601612290565b9150509250929050565b6000806040838503121561248c57600080fd5b600061249a8582860161227b565b92505060206124ab858286016122f9565b9150509250929050565b6000602082840312156124c757600080fd5b60006124d5848285016122a5565b91505092915050565b6000602082840312156124f057600080fd5b60006124fe848285016122ba565b91505092915050565b60006020828403121561251957600080fd5b6000612527848285016122f9565b91505092915050565b6125398161304e565b82525050565b61254881613060565b82525050565b600061255982612ef6565b6125638185612f0c565b93506125738185602086016130d1565b61257c8161329d565b840191505092915050565b600061259282612f01565b61259c8185612f1d565b93506125ac8185602086016130d1565b6125b58161329d565b840191505092915050565b60006125cb82612f01565b6125d58185612f2e565b93506125e58185602086016130d1565b80840191505092915050565b600081546125fe81613104565b6126088186612f2e565b94506001821660008114612623576001811461263457612667565b60ff19831686528186019350612667565b61263d85612ee1565b60005b8381101561265f57815481890152600182019150602081019050612640565b838801955050505b50505092915050565b600061267d602583612f2e565b9150612688826132ae565b602582019050919050565b60006126a0603283612f1d565b91506126ab826132fd565b604082019050919050565b60006126c3602583612f1d565b91506126ce8261334c565b604082019050919050565b60006126e6601c83612f1d565b91506126f18261339b565b602082019050919050565b6000612709600a83612f2e565b9150612714826133c4565b600a82019050919050565b600061272c602483612f1d565b9150612737826133ed565b604082019050919050565b600061274f601983612f1d565b915061275a8261343c565b602082019050919050565b6000612772606383612f2e565b915061277d82613465565b606382019050919050565b6000612795600b83612f2e565b91506127a082613500565b600b82019050919050565b60006127b8602c83612f1d565b91506127c382613529565b604082019050919050565b60006127db600d83612f2e565b91506127e682613578565b600d82019050919050565b60006127fe603883612f1d565b9150612809826135a1565b604082019050919050565b6000612821602a83612f1d565b915061282c826135f0565b604082019050919050565b6000612844602983612f1d565b915061284f8261363f565b604082019050919050565b6000612867602e83612f1d565b91506128728261368e565b604082019050919050565b600061288a600283612f2e565b9150612895826136dd565b600282019050919050565b60006128ad602083612f1d565b91506128b882613706565b602082019050919050565b60006128d0603183612f1d565b91506128db8261372f565b604082019050919050565b60006128f3602c83612f1d565b91506128fe8261377e565b604082019050919050565b6000612916602f83612f1d565b9150612921826137cd565b604082019050919050565b6000612939600a83612f2e565b91506129448261381c565b600a82019050919050565b600061295c602183612f1d565b915061296782613845565b604082019050919050565b600061297f600a83612f2e565b915061298a82613894565b600a82019050919050565b60006129a2601d83612f2e565b91506129ad826138bd565b601d82019050919050565b60006129c5603183612f1d565b91506129d0826138e6565b604082019050919050565b6129e4816130b8565b82525050565b60006129f682846125c0565b915081905092915050565b6000612a0d82856125c0565b9150612a1982846125c0565b91508190509392505050565b6000612a3182866125c0565b9150612a3d82856125c0565b9150612a4982846125c0565b9150819050949350505050565b6000612a6282876125f1565b9150612a6e82866125c0565b9150612a7a82856125c0565b9150612a8682846125c0565b9150612a91826127ce565b915081905095945050505050565b6000612aaa82612670565b9150612ab682846125c0565b915081905092915050565b6000612acc826126fc565b9150612ad882846125c0565b915081905092915050565b6000612aee82612788565b9150612afa82846125c0565b915081905092915050565b6000612b108261292c565b9150612b1c82856125c0565b9150612b2782612765565b9150612b3382846125c0565b9150612b3e8261287d565b91508190509392505050565b6000612b5582612972565b9150612b6182846125c0565b915081905092915050565b6000612b7782612995565b9150612b8382846125c0565b915081905092915050565b6000602082019050612ba36000830184612530565b92915050565b6000608082019050612bbe6000830187612530565b612bcb6020830186612530565b612bd860408301856129db565b8181036060830152612bea818461254e565b905095945050505050565b6000602082019050612c0a600083018461253f565b92915050565b60006020820190508181036000830152612c2a8184612587565b905092915050565b60006060820190508181036000830152612c4c8186612587565b9050612c5b60208301856129db565b612c686040830184612530565b949350505050565b60006020820190508181036000830152612c8981612693565b9050919050565b60006020820190508181036000830152612ca9816126b6565b9050919050565b60006020820190508181036000830152612cc9816126d9565b9050919050565b60006020820190508181036000830152612ce98161271f565b9050919050565b60006020820190508181036000830152612d0981612742565b9050919050565b60006020820190508181036000830152612d29816127ab565b9050919050565b60006020820190508181036000830152612d49816127f1565b9050919050565b60006020820190508181036000830152612d6981612814565b9050919050565b60006020820190508181036000830152612d8981612837565b9050919050565b60006020820190508181036000830152612da98161285a565b9050919050565b60006020820190508181036000830152612dc9816128a0565b9050919050565b60006020820190508181036000830152612de9816128c3565b9050919050565b60006020820190508181036000830152612e09816128e6565b9050919050565b60006020820190508181036000830152612e2981612909565b9050919050565b60006020820190508181036000830152612e498161294f565b9050919050565b60006020820190508181036000830152612e69816129b8565b9050919050565b6000602082019050612e8560008301846129db565b92915050565b6000612e95612ea6565b9050612ea18282613136565b919050565b6000604051905090565b600067ffffffffffffffff821115612ecb57612eca61326e565b5b612ed48261329d565b9050602081019050919050565b60008190508160005260206000209050919050565b600081519050919050565b600081519050919050565b600082825260208201905092915050565b600082825260208201905092915050565b600081905092915050565b6000612f44826130b8565b9150612f4f836130b8565b9250827fffffffffffffffffffffffffffffffffffffffffffffffffffffffffffffffff03821115612f8457612f836131e1565b5b828201905092915050565b6000612f9a826130b8565b9150612fa5836130b8565b925082612fb557612fb4613210565b5b828204905092915050565b6000612fcb826130b8565b9150612fd6836130b8565b9250817fffffffffffffffffffffffffffffffffffffffffffffffffffffffffffffffff048311821515161561300f5761300e6131e1565b5b828202905092915050565b6000613025826130b8565b9150613030836130b8565b925082821015613043576130426131e1565b5b828203905092915050565b600061305982613098565b9050919050565b60008115159050919050565b60007fffffffff0000000000000000000000000000000000000000000000000000000082169050919050565b600073ffffffffffffffffffffffffffffffffffffffff82169050919050565b6000819050919050565b82818337600083830152505050565b60005b838110156130ef5780820151818401526020810190506130d4565b838111156130fe576000848401525b50505050565b6000600282049050600182168061311c57607f821691505b602082108114156131305761312f61323f565b5b50919050565b61313f8261329d565b810181811067ffffffffffffffff8211171561315e5761315d61326e565b5b80604052505050565b6000613172826130b8565b91507fffffffffffffffffffffffffffffffffffffffffffffffffffffffffffffffff8214156131a5576131a46131e1565b5b600182019050919050565b60006131bb826130b8565b91506131c6836130b8565b9250826131d6576131d5613210565b5b828206905092915050565b7f4e487b7100000000000000000000000000000000000000000000000000000000600052601160045260246000fd5b7f4e487b7100000000000000000000000000000000000000000000000000000000600052601260045260246000fd5b7f4e487b7100000000000000000000000000000000000000000000000000000000600052602260045260246000fd5b7f4e487b7100000000000000000000000000000000000000000000000000000000600052604160045260246000fd5b6000601f19601f8301169050919050565b7f68747470733a2f2f6e6674707265766965772e30786465762e636f6465732f3f60008201527f636f64653d000000000000000000000000000000000000000000000000000000602082015250565b7f4552433732313a207472616e7366657220746f206e6f6e20455243373231526560008201527f63656976657220696d706c656d656e7465720000000000000000000000000000602082015250565b7f4552433732313a207472616e736665722066726f6d20696e636f72726563742060008201527f6f776e6572000000000000000000000000000000000000000000000000000000602082015250565b7f4552433732313a20746f6b656e20616c7265616479206d696e74656400000000600082015250565b7f54484952445f574f524400000000000000000000000000000000000000000000600082015250565b7f4552433732313a207472616e7366657220746f20746865207a65726f2061646460008201527f7265737300000000000000000000000000000000000000000000000000000000602082015250565b7f4552433732313a20617070726f766520746f2063616c6c657200000000000000600082015250565b7f222c20226465736372697074696f6e223a20224120686967686c79206163636c60008201527f61696d656420636f6c6c656374696f6e206f6620737175617265732e222c202260208201527f696d616765223a2022646174613a696d6167652f7376672b786d6c3b6261736560408201527f36342c0000000000000000000000000000000000000000000000000000000000606082015250565b7f5345434f4e445f574f5244000000000000000000000000000000000000000000600082015250565b7f4552433732313a206f70657261746f7220717565727920666f72206e6f6e657860008201527f697374656e7420746f6b656e0000000000000000000000000000000000000000602082015250565b7f3c2f746578743e3c2f7376673e00000000000000000000000000000000000000600082015250565b7f4552433732313a20617070726f76652063616c6c6572206973206e6f74206f7760008201527f6e6572206e6f7220617070726f76656420666f7220616c6c0000000000000000602082015250565b7f4552433732313a2062616c616e636520717565727920666f7220746865207a6560008201527f726f206164647265737300000000000000000000000000000000000000000000602082015250565b7f4552433732313a206f776e657220717565727920666f72206e6f6e657869737460008201527f656e7420746f6b656e0000000000000000000000000000000000000000000000602082015250565b7f45524337323155524953746f726167653a2055524920736574206f66206e6f6e60008201527f6578697374656e7420746f6b656e000000000000000000000000000000000000602082015250565b7f227d000000000000000000000000000000000000000000000000000000000000600082015250565b7f4552433732313a206d696e7420746f20746865207a65726f2061646472657373600082015250565b7f45524337323155524953746f726167653a2055524920717565727920666f722060008201527f6e6f6e6578697374656e7420746f6b656e000000000000000000000000000000602082015250565b7f4552433732313a20617070726f76656420717565727920666f72206e6f6e657860008201527f697374656e7420746f6b656e0000000000000000000000000000000000000000602082015250565b7f4552433732314d657461646174613a2055524920717565727920666f72206e6f60008201527f6e6578697374656e7420746f6b656e0000000000000000000000000000000000602082015250565b7f7b226e616d65223a202200000000000000000000000000000000000000000000600082015250565b7f4552433732313a20617070726f76616c20746f2063757272656e74206f776e6560008201527f7200000000000000000000000000000000000000000000000000000000000000602082015250565b7f46495253545f574f524400000000000000000000000000000000000000000000600082015250565b7f646174613a6170706c69636174696f6e2f6a736f6e3b6261736536342c000000600082015250565b7f4552433732313a207472616e736665722063616c6c6572206973206e6f74206f60008201527f776e6572206e6f7220617070726f766564000000000000000000000000000000602082015250565b61393e8161304e565b811461394957600080fd5b50565b61395581613060565b811461396057600080fd5b50565b61396c8161306c565b811461397757600080fd5b50565b613983816130b8565b811461398e57600080fd5b5056fe416e204e465420772f20494420257320686173206265656e206d696e74656420746f2025734142434445464748494a4b4c4d4e4f505152535455565758595a6162636465666768696a6b6c6d6e6f707172737475767778797a303132333435363738392b2fa264697066735822122082ec3f4f7f593b73d2b483b6eb1aa775548ec08ff80459458a9b459ed27fc6a664736f6c634300080100333c73766720786d6c6e733d27687474703a2f2f7777772e77332e6f72672f323030302f73766727207072657365727665417370656374526174696f3d27784d696e594d696e206d656574272076696577426f783d273020302033353020333530273e3c7374796c653e2e62617365207b2066696c6c3a2077686974653b20666f6e742d66616d696c793a2073657269663b20666f6e742d73697a653a20323470783b207d3c2f7374796c653e3c726563742077696474683d273130302527206865696768743d2731303025272066696c6c3d27626c61636b27202f3e3c7465787420783d273530252720793d273530252720636c6173733d27626173652720646f6d696e616e742d626173656c696e653d276d6964646c652720746578742d616e63686f723d276d6964646c65273e",
  "linkReferences": {},
  "deployedLinkReferences": {}
}